:020000040800F2
:10000000B0150120B9020008F9630008D14E0008BC
:1000100031610008CD120008716F00080000000077
:100020000000000000000000000000005D68000803
:10003000AF1300080000000035650008C168000823
:10004000D3020008D3020008D3020008D30200083C
:10005000D3020008D3020008D3020008D30200082C
:10006000D3020008D3020008D3020008D11200080E
:10007000DD120008E9120008F5120008011300085B
:10008000D3020008D3020008D3020008D3020008FC
:10009000D3020008D3020008D3020008D3020008EC
:1000A000D3020008D3020008D3020008D3020008DC
:1000B000D3020008D3020008D3020008D3020008CC
:1000C000D3020008D3020008D3020008D3020008BC
:1000D000D3020008D3020008D3020008D3020008AC
:1000E00045190008D3020008D3020008D302000813
:1000F000D3020008D3020008D3020008D30200088C
:10010000D3020008D3020008D3020008CD6500081E
:10011000D3020008D30200083D69000849690008BD
:10012000D3020008D3020008D3020008D30200085B
:10013000D3020008D3020008D3020008D30200084B
:10014000D3020008D3020008D3020008D30200083B
:10015000D3020008D3020008D3020008D30200082B
:10016000D3020008D3020008D3020008D30200081B
:10017000D3020008D3020008D3020008D30200080B
:10018000D3020008D3020008D3020008D3020008FB
:10019000D302000800000000D3020008D3020008C8
:1001A000D3020008D3020008D3020008D3020008DB
:1001B000D3020008D3020008D3020008D3020008CB
:1001C000D3020008D3020008D3020008D3020008BB
:1001D000D3020008D302000800F002F800F05CF837
:1001E0000AA090E8000C82448344AAF10107DA4592
:1001F00001D100F051F8AFF2090EBAE80F0013F088
:10020000010F18BFFB1A43F001031847E4E4030091
:1002100004E503000A444FF0000C10F8013B13F012
:10022000070408BF10F8014B1D1108BF10F8015B4F
:10023000641E05D010F8016B641E01F8016BF9D142
:1002400013F0080F1EBF10F8014BAD1C0C1B09D199
:100250006D1E58BF01F801CBFAD505E014F8016B0B
:1002600001F8016B6D1EF9D59142D6D3704700009D
:100270000023002400250026103A28BF78C1FBD8AF
:10028000520728BF30C148BF0B6070471FB52CF024
:1002900054FB1FBD10B510BD00F0DCF91146FFF78F
:1002A000F5FF26F00BF900F0FAF903B4FFF7F2FFBF
:1002B00003BC00F0FDF900000948804709480047E9
:1002C000FEE7FEE7FEE7FEE7FEE7FEE7FEE7FEE706
:1002D000FEE7FEE704480549054A064B7047000063
:1002E0002D690008D9010008B00F0120B0150120C8
:1002F000B0110120B011012053EA020C00F0698016
:100300002DE9F04B4FF00006002B1FBFB3FA83F529
:1003100003FA05F424FA05F65E4012BF1643B2FA5A
:1003200082F502FA05F4C5F120051EBF22FA05FC8C
:1003300044EA0C04203556EA044C4FEA144418BF32
:10034000641C4FF000084FF00009904271EB030C61
:1003500039D3002919BFB1FA81F701FA07F6B0FACB
:1003600080F700FA07F6C7F120071EBF20FA07FC46
:1003700046EA0C062037B6FBF4FCA7EB0507103F56
:1003800007F01F0BCBF120060CFA0BFB2CFA06F63C
:1003900044BFB3460026202FA4BF5E464FF0000B9B
:1003A0005BEA060C08BF4FF0010B19EB0B09ABFB26
:1003B000027C48EB0608C01B06FB02CC0BFB03CCFF
:1003C00071EB0C01C1E70B46024641464846BDE8C9
:1003D000F08B13B54FF000004FF00001AFF3008039
:1003E000BDE81C40704740EA0103024630B59B0758
:1003F00010D14FF0013400E008C208C91D1B9D4315
:1004000015EAC41FF8D013F0FF0102F8011B0DD04C
:100410001B0AF8E711F8013B002B02F8013B05D05D
:1004200011F8013B002B02F8013BF3D130BD10B5B0
:10043000431C02E010F8011B71B18107FAD14FF0A3
:10044000013202C88C1A8C4314EAC211F9D0C01AC6
:100450000A0603D0C01E10BDC01A10BD0A0401D088
:10046000801E10BD0902FCD0401E10BD032A40F2C0
:10047000308010F0030C00F0158011F8013BBCF146
:10048000020F624498BF11F801CB00F8013B38BF5E
:1004900011F8013BA2F1040298BF00F801CB38BF6C
:1004A00000F8013B11F0030300F02580083AC0F08A
:1004B000088051F8043B083A51F804CBA0E8081032
:1004C000F5E7121D5CBF51F8043B40F8043BAFF365
:1004D0000080D20724BF11F8013B11F801CB48BFBF
:1004E00011F8012B24BF00F8013B00F801CB48BFF5
:1004F00000F8012B704710B5203AC0F00B80B1E82E
:100500001850203AA0E81850B1E81850A0E8185048
:10051000BFF4F5AF5FEA027C24BFB1E81850A0E851
:10052000185044BF18C918C0BDE810405FEA827C6B
:1005300024BF51F8043B40F8043B08BF7047D20782
:1005400028BF31F8023B48BF11F8012B28BF20F823
:10055000023B48BF00F8012B70474FF0000200B586
:10056000134694469646203922BFA0E80C50A0E8D6
:100570000C50B1F12001BFF4F7AF090728BFA0E884
:100580000C5048BF0CC05DF804EB890028BF40F850
:10059000042B08BF704748BF20F8022B11F0804F92
:1005A00018BF00F8012B70474FF0013C50F8042BA6
:1005B00051F8043B9A4221D1A2EB0C03934313EA76
:1005C000CC1317D150F8042B51F8043B9A4215D1A3
:1005D000A2EB0C03934313EACC130BD150F8042B7A
:1005E00051F8043B9A4209D1A2EB0C03934313EA5E
:1005F000CC13DBD04FF00000704700BFD01A01BA17
:10060000B1FA81F101F0180122FA01F0CB40C1F1F9
:100610002001DBB2C0B2C01A2CFA01F3D11A914307
:1006200011EAC311E6D1704770477047704710B5A3
:1006300000F008F8006810BD10B5044600F002F89C
:10064000046010BD00487047500F012000487047FB
:10065000500F01207546FFF7F9FFAE4605006946C9
:10066000534620F00700854618B020B5FFF732FE4C
:10067000BDE820404FF000064FF000074FF00008A3
:100680004FF0000B21F00701AC46ACE8C009ACE824
:10069000C009ACE8C009ACE8C0098D46704710B588
:1006A0000446AFF300802046BDE81040FFF7FDBDD3
:1006B00001491820ABBEFEE726000200704700008B
:1006C0002DE9F74FFF4D06462DED048B8846B5F911
:1006D0000000317800EE100AFB48B8EEC00A00EBCB
:1006E000810080ED000A3078401CC0B200EE100A94
:1006F0003070B8EE400A9FEDF58A20EE080ADFED73
:10070000F48AF44CC0EE280A94ED030A30EE800A15
:1007100006F052FC84ED1A0A307800EE100AB8EEAA
:10072000400A20EE080AC0EE280A94ED030A30EED3
:10073000800A06F0E9FC84ED190AB5F9000004F11D
:10074000540200EE100AE048A2F10C01B8EEC00A13
:10075000183800F0B3FC94ED1A1A94ED120AD4ED97
:10076000191AD4ED150A21EE002A21EE800ADA4882
:1007700001EEA02A01EE600A84ED062A84ED070A44
:1007800000F0FEFAD54884ED030A4078D44DD54FE9
:100790009FEDD59ADFF854B3DFF85493DFF854A3F4
:1007A000DFEDD58A9FEDD58A06281FD2DFE800F05D
:1007B000031E1F77FDFCC84805F0BEFED04805F0BB
:1007C000BBFED04805F0B8FECF4805F0B5FEC448E2
:1007D00005F0B2FECD4805F0AFFECD4805F0ACFE09
:1007E000CC4805F0A9FECC4805F0BEFEBDE1CB48E3
:1007F000B84AB0F900004C3200EE100AB248A2F13B
:100800000C01B8EEC00A483800F058FCD4ED101ABC
:1008100094ED1A2A94ED131AD4ED190A21EE820AE6
:10082000B84801EE200A21EE021A01EEE01A84ED2A
:10083000080A84ED091A00F045FA84ED010A94EDE6
:10084000090AB14800F09CFA84ED040A388800EEE9
:10085000100AAB48B8EE400A00F034FA84ED160AEC
:10086000206BD4ED080A00EE100A8012B8EEC00A20
:1008700070EE200A00EE100AB8EEC00A30EEC00A90
:10088000BDEEC00A10EE100A2063801200EE100ABE
:10089000B8EEC00AC0EE090ACBED000A65E1F0EE41
:1008A000482A9FED9F2ADFED9F1A9FED9F1AF3EED6
:1008B000070A9FED9E0A0121914804F046FBB9F911
:1008C0000000844A00EE100A7F485032A2F10C0169
:1008D000B8EEC00A303800F0F1FB94ED112AD4EDE7
:1008E0001A1A94ED141AD4ED190A22EE210A7C4842
:1008F00001EE200A21EE211A02EE601A84ED0A0AA6
:1009000084ED0B1A00F0DEF984ED020A94ED0B0A77
:100910007E4800F035FA84ED050A94ED010AD4ED25
:10092000020A30EE200A10EE100A84ED0E0A50453D
:1009300002DDC4ED0E8A06E0B5EEC00AF1EE10FA53
:100940000BD284ED0E8A95ED070AD5ED0B0A95EDD5
:10095000021A00EEC10A85ED070A388800EE100A77
:100960006748B8EE400A00F0ADF984ED160A206B36
:10097000D4ED060A00EE100A8012B8EEC00A70EE3E
:10098000200A00EE100AB8EEC00A30EEC00ABDEE32
:10099000C00A10EE100A2063801200EE100AB8EEB2
:1009A000C00AC0EE090A01E0CCE029E0CBED000A64
:1009B000606B94ED0A1A00EE100A8012B8EEC00ABD
:1009C00030EE011A00EE100AB8EEC00A31EE400A0D
:1009D000BDEEC00A10EE100A6063801200EE100A2D
:1009E0005348B8EEC00A80ED000A524820EE200AB3
:1009F000D0ED000A504880EE201A80ED001AB4E0D5
:100A0000B9F90000334A00EE100A2F485032A2F123
:100A10000C01B8EEC00A303800F050FB94ED140A17
:100A2000D4ED1A0A94ED191A384820EE200AD4EDB4
:100A3000110A00EEC10A84ED0B0A00F0A1F984ED61
:100A4000050AB9F90000234A00EE100A388860321E
:100A5000F8EEC01A00EE100A3848111FB8EE401A1E
:100A6000B0F9000000EE100A3548F8EEC00AB0F9FF
:100A7000000000EE100A2848B8EEC00A05F0BEFCDF
:100A800094ED010AD4ED020A30EE200A10EE100AAD
:100A900084ED0E0A504502DDC4ED0E8A06E0B5EE87
:100AA000C00AF1EE10FA60D284ED0E8A95ED070AC5
:100AB000D5ED0B0A95ED021A00EEC10A85ED070A85
:100AC00053E000001400002060160020DB0F4940B6
:100AD0000000C84284020020E0060020160000202A
:100AE000200600200C0000208D1758422400002012
:100AF0001200002000007A4600007A460000000044
:100B0000A0050020E005002060060020A0060020CF
:100B1000C00700200008002020070020100000204F
:100B200000F0B94630AD2E4500009A4200001F4348
:100B300028000020300000202C0000200A000020A7
:100B40000800002000222021544802F0E8F800208C
:100B5000C8F8000084ED168A84ED0E8A84ED0F8AB1
:100B600084ED028A84ED018A208094ED040A3578B0
:100B7000BDEEC00A10EE100A05FA80F000B2208027
:100B8000C82801DBC83802E0002800DAC83006B205
:100B9000268060692BF060FE41EC180BE0682BF0BA
:100BA0005BFE41EC190B28462BF0DCFB9FED3C1B58
:100BB00053EC112B2BF026FC53EC192B2BF016F9D0
:100BC00053EC182B2BF012F92BF0DEF800EE100A84
:100BD000354910EE100ADFED350A84ED0F0A884220
:100BE00002DB30EE600A06E0B5EEC00AF1EE10FA64
:100BF00001D230EE200A9FED2F1A84ED0F0A94EDFA
:100C0000160AD4ED170A30EE200ABCEEC00A10EE28
:100C1000100A81B22648C8F8001000EB8600D4ED17
:100C2000010A90ED000A60EE200A80EE810ADFEDF5
:100C3000220A30EE208A94ED0F0A06F0BDF9D4EDB9
:100C4000020A00EE808ABCEEC80A10EE100A81B2D9
:100C50000698016094ED0F0A06F0AEF9D4ED020A91
:100C6000164820EE200A80ED000ABDEC048BBDE89A
:100C7000FE8F1348407870471148407870471048FD
:100C8000407870470E48407870470D48407870476C
:100C90000B48407870470A48407870470010004879
:100CA00062B37C8DBF15A03FDB0FC940DB0FC9408D
:100CB000601600200000964400D084464C000020BE
:100CC0001600002080ED010AD0ED000A30EEC00AC7
:100CD00080ED020AD0ED070AD0ED0B1A41EE800A32
:100CE000C0ED070A90ED0D1ADFEDB12A818F02EEFB
:100CF000101A21EE223AB8EE422A23EE022AB4EE6E
:100D0000E02AF1EE10FA03D841EEC00AC0ED070A5E
:100D100090ED0E2A00EE901A62EE222AF8EE600A9A
:100D200062EEA02AD0ED070AF4EEE02AF1EE10FA06
:100D300003DD41EEC00AC0ED070AD0ED0A1AD0ED7E
:100D40000C2A41EE800AD0ED031A70EE611A42EED1
:100D5000A10AC0ED090AF4EEC10A80ED030AF1EE22
:100D600010FA01DD80ED091A90ED090AB4EEC20A0D
:100D7000F1EE10FA01D280ED092A90ED090A7047D0
:100D800080ED010AD0ED000A30EEC00A80ED020AC3
:100D9000D0ED0A0A90ED031A90ED0B2A60EE800A5E
:100DA00070EE411A42EE210AB0EE002AF0EE401A2F
:100DB00041EE421A90ED042A71EE821A90ED0C2A4F
:100DC00042EE210AD0ED091A70EEA10AC0ED090A1F
:100DD00080ED041A80ED030A90ED0D0AF4EEC00ACE
:100DE000F1EE10FA03DD30EEC00A80ED090AD0ED15
:100DF000090A90ED0E0AF4EEC00AF1EE10FA02D3E1
:100E0000B0EE600A704730EEC00A80ED090A704704
:100E100060EE200A9FED671AC0EE811AC0ED001A3D
:100E2000D0ED010A71EEE00AC0ED020A90ED072A4A
:100E300090ED0B1A01EE202A80ED072AD0ED0D2A45
:100E4000F4EEC02AF1EE10FA03D201EE602A80ED32
:100E5000072A90ED0E2AB4EEC02AF1EE10FA90EDBA
:100E6000070A03DD01EE600A80ED070A10EE101A92
:100E7000514A914203DD01EE600A80ED070A10EE4F
:100E8000101A4E4A914203D901EE600A80ED070A1A
:100E900090ED0A1A90ED0C2A01EE200A90ED031A4B
:100EA00030EEC11A02EE010A80ED090AC0ED030A14
:100EB000C0ED011A70474249D0ED0B1AD0ED0A2A55
:100EC0000A7890ED0C2A9ABB05220A7080ED010A7F
:100ED00090ED001A31EE401A80ED051A90ED073AB8
:100EE00001EE813A80ED073AD0ED0D3AB4EEE30A17
:100EF000F1EE10FA03DD01EE813A80ED073A90ED54
:100F00000E3AB4EEC30AF1EE10FA90ED070A03D2DE
:100F100001EE810A80ED070A90ED063A02EE810AA1
:100F200031EE433A02EE030A80ED080A80ED061A1C
:100F300090ED081AB2EE043A224B81EE030A30EE2D
:100F4000600A80ED020AD0ED030A22EE801A70EEEC
:100F5000602A01EEA21AF0EE002AF0EE401A40EEEE
:100F6000E21AD0ED042A71EEA21A02EE211AD0ED97
:100F7000091A31EE211A11EE102A80ED091A9A424F
:100F800003DD9FED111A80ED091A11EE102A0F4BA7
:100F90009A4203D99FED0E1A80ED091AC0ED040A9A
:100FA00080ED030A0A78521E0A7090ED090A704714
:100FB000C520803F00007A440000FA460000FAC6CF
:100FC000F002002000204B4600204B4600204BC67C
:100FD00000204BC620EE012A00EEA12A60EE810A15
:100FE00040EE610A80ED002AC1ED000A704710B59D
:100FF0001478C82C01D3C83C1470E4B2FDEEE00AAA
:1010000020F81430137810EE902A03FA82F212B20C
:10101000A0F89021C82A01DBC83A02E0002A00DAD1
:10102000C83212B2A0F8902130F9122000EE902AB6
:10103000F8EEE00A20EE800ADFED330A80EE201A97
:10104000BDEEC10A10EE102AA0F89C210A8010BD46
:1010500030B5B0F904308B4200DA0B460380B0F9AA
:1010600006408C4200DD0C464480C4808380058AA3
:10107000B5F5C87F01D015B10EE0002505821D1918
:101080006D101B1B85815B10C38183685C19A4EB09
:10109000A3038360C58085808368A1EBA3011180D1
:1010A000018A491C018230BD10B583685C18A4EB2D
:1010B000A3238360A1EBA320108010BDD0ED010A13
:1010C00030EE601A80ED051A90ED020A90ED002ACC
:1010D000F0EE401A51EE021A90ED031A21EE812A29
:1010E000D0ED041A42EE210AC0ED010A20EE811A69
:1010F00001EE210A80ED020AC1ED000A90ED020A1C
:1011000082ED000A704700000080364410B5846A02
:10111000E16D11F0500F06D0E16DC90625D52046CE
:1011200000F054FF10BDE06D40F40070E0652068F1
:101130000168090716D504F017FC78B12068C0686B
:10114000800400280ADBE06D20F48070E065E06D2B
:10115000C00403D4E06D40F00100E065204600F0DB
:1011600033FF10BDC0688007EBE7616D496BBDE8D8
:101170001040084710B5806AC16D41F04001C1655B
:10118000016E41F00401016600F020FF10BD10B5B2
:10119000806A00F01AFF10BD70B5044600688168CF
:1011A0008268C1F3400112F0010F28D039BB816879
:1011B00001F00D01012914D18168124A1140891CE6
:1011C000816021680320086001F0AEFD054612E051
:1011D00001F0AAFD401B02280DD920688068C007D5
:1011E00009D0E06D40F01000E065206E40F0010095
:1011F0002066012070BD20688068C007E8D100200B
:1012000070BD0000C0FFFF7FF8B5044600200090CD
:101210002068816811F0010F4AD18168254A114286
:1012200037D18168D5432940491C81602068B0F1DD
:10123000A04F02D02049884201D1204800E0204838
:10124000806800F0E07000020DD51E481E4900685D
:10125000B0FBF1F0401C00EB4000800000E0401EBD
:1012600000900028FBD101F05FFD06461BE081687D
:1012700011F0010F03D181682940491C816001F000
:1012800053FD801B02280ED920680068C043C007A8
:1012900009D0E06D40F01000E065206E40F00100E4
:1012A00020660120F8BD20680168C943C907DED166
:1012B0000020F8BD3F0000800001005000030050F6
:1012C0000007005060000020400D0300FEE7000012
:1012D000014801F0D7BA000018090020014801F0C8
:1012E000D1BA0000680C0020014801F0CBBA000020
:1012F00078090020014801F0C5BA0000480A002022
:10130000014801F0BFBA0000A80A00200D49026898
:101310008A4201D20C4901E00B492031D2B2142398
:10132000083AB2FBF3F2436C02F01F0223F003030E
:101330001944816404498031C164012191400165EF
:101340007047000008040240000802400179074A83
:1013500002EB81024265054A4432491E826501F072
:101360001F0201219140C16570470000FC08024046
:1013700030B5D0E913456560446D14B1D0E9164528
:10138000656090F8444004F01F050124AC40056CF2
:101390006C60046863608368102B036803D09960F5
:1013A0000068C26030BD9A600068C16030BD70479F
:1013B0002DE9F84F2C4F4FF6FF780124A7F8008055
:1013C0002AA30C2220210020009404F0CFF900254C
:1013D000290130A31022DA20009404F0C7F96D1C13
:1013E000EDB20F2DF4D321A30C22A02100200094F4
:1013F00004F0BCF9284D40F2FF7A6868416841B1B9
:10140000A7F800A00094002103682022084604F0F9
:10141000ADF96868A9460125866818E099F80000CA
:10142000854202D1A7F800A001E0A7F8008005EBF3
:10143000C50000EB400100941822002015313368EC
:1014400004F094F96D1CF668EDB2052D01D8002E5C
:10145000E4D1A7F8008011A318228C210020009469
:1014600004F084F9BDE8F88F800200207C3C2D2D2B
:101470002D2D2D2D2D2D2D2D2D2D2D2D2D2D2D2D9C
:101480002D2D2D2D2D2D2D2D2D2D2D2D2D2D2D3E7B
:10149000000000007C00000064000020506C6561CA
:1014A00073652073656C6563742061206D6F64657E
:1014B0002E0000002DE9F843194E1A4F40F2FF7834
:1014C0007068416841B1A7F800800021009103686D
:1014D00020227E2004F04AF970680124A146856824
:1014E00019E03078844202D1A7F8008002E04FF67C
:1014F000FF70388004EBC40000EB4001CDF8009091
:101500001822602015312B6804F030F9641CED6856
:10151000E4B2052C01D8002DE3D1BDE8F88300002A
:101520006400002080020020F8B51C4E4FF6FF77C3
:10153000012437801AA30C2220210020009404F0FB
:1015400015F90025290120A31022DA20009404F0C7
:101550000DF96D1CEDB20F2DF4D311A30C22A021B7
:101560000020009404F002F918484068416849B12D
:1015700040F2FF7131800094002103682022084668
:1015800004F0F4F812480078002806D1378011A33F
:1015900014228C21009404F0E9F8F8BD80020020A8
:1015A0007C3C2D2D2D2D2D2D2D2D2D2D2D2D2D2D0D
:1015B0002D2D2D2D2D2D2D2D2D2D2D2D2D2D2D2D5B
:1015C0002D2D2D3E000000007C0000006400002056
:1015D00016000020506C6561736520726574757229
:1015E0006E20746F207468652073656C6563746920
:1015F0006F6E206D6F64652E00000000F8B51C4E04
:101600004FF6FF70012530801AA30C222021002004
:10161000009504F0ABF80024210120A31022DA2069
:10162000009504F0A3F8641CE4B20F2CF4D311A3CA
:101630000C22A0210020009504F098F8184840687A
:10164000416849B140F2FF71318000950021036883
:101650002022084604F08AF812480078002805D1B4
:1016600011A318228C21009504F080F8F8BD000029
:10167000800200207C3C2D2D2D2D2D2D2D2D2D2D4E
:101680002D2D2D2D2D2D2D2D2D2D2D2D2D2D2D2D8A
:101690002D2D2D2D2D2D2D3E000000007C00000055
:1016A0006400002016000020506C65617365207294
:1016B000657475726E20746F207468652073656C34
:1016C000656374696F6E206D6F64652E00000000A5
:1016D000F8B5174E4FF6FF700125308015A30C2288
:1016E00020210020009504F041F8002421011BA3D3
:1016F0001022DA20009504F039F8641CE4B20F2CB3
:10170000F4D30CA30C22A0210020009504F02EF8A5
:10171000134840684168002909D040F2FF713180C8
:101720000095002103682022084604F01FF8F8BD48
:10173000800200207C3C2D2D2D2D2D2D2D2D2D2D8D
:101740002D2D2D2D2D2D2D2D2D2D2D2D2D2D2D2DC9
:101750002D2D2D2D2D2D2D3E000000007C00000094
:10176000640000202DE9F047654C05462DED028B05
:10177000F0EE608AA078B0EE408ADFF888A10B28EE
:101780000CD2DFE800F0060B060606060606060683
:10179000060000222021504601F0C1FA48F2D04054
:1017A000B5FBF0F0C0F101000127B7FBF0F000EE4F
:1017B000100A554DB8EE400A85ED010A60780528FB
:1017C0007ED018EE100A514A03210526904201DD11
:1017D0006670A170C8EE000A4D4A10EE900A904261
:1017E00002DA66700920A0706078DFF828914FF067
:1017F000020828B1484F022819D0032873D144E0C9
:1018000000222021504601F08AFAD5ED010A434911
:1018100088EE200A10EE100A884264DB4049D9F8AD
:10182000000088425FDD84F80180A7705BE018EE5D
:10183000900AB84202DB66700A20A070394890ED29
:10184000020A3948B0EEC00A10EE102A824214DAB9
:10185000364A92ED020AB0EEC00A10EE102A824219
:101860000BDA334A92ED020AB0EEC00A10EE102AEB
:10187000824202DA2888401C28802888B0F5C87F78
:1018800031D16170002028802DE0012220215046B6
:1018900001F045FA18EE900AB84202DB667084F84F
:1018A00002802448244990ED020AB0EEC00A10EEEE
:1018B000100A884202DD6888401C6880688800E061
:1018C0000CE0C82802D166700820A0701B49D9F826
:1018D0000000884207DD6670A67004E00022202127
:1018E000504601F01CFAB5F9000000EE100A144849
:1018F000B8EEC00A80ED000ABDEC028BBDE8F087AF
:101900001600002000100048F8020020573056450D
:10191000521FFE449C020020A3AB6845B4D1594439
:101920000040A444A005002000005041E005002034
:1019300060060020A00600200000F642C193AF44DC
:101940004800002010B54FF4005001F0B3F84FF4F8
:10195000804001F0AFF8BDE810404FF4004001F0C6
:10196000A9B872B6FEE70000F8B500260446009656
:1019700090F858000D4601280BD0012084F858003B
:101980002046FFF709FC0100E06D04D040F0100094
:101990002AE00220F8BD20F4885040F00200E06503
:1019A00020688268134B1A4005F080431A4342F0C6
:1019B00000428260104A20680EE0009B5B1C00938E
:1019C000934209D3E06D20F0020040F01000E06582
:1019D00084F858600120F8BD8368DB0FEDD1E06D1D
:1019E00020F0020040F00100E06584F858600846ED
:1019F000F8BD0000C0FFFF3F02DE04002DE9F04FFC
:101A0000044690F858009BB00F464FF0000B012899
:101A100012D0012084F858000026179618962068E6
:101A20004FF0A048DFF81C91DFF81CA1474D40455E
:101A300006D12846009508E002201BB0BDE8F08FD3
:101A400048450AD15046CDF800A003F089FF009028
:101A5000206803F085FF40B109E0E06D40F0200010
:101A6000E06584F858600120E7E7009850B1E06D28
:101A700040F02000E0654FF0010B00BF84F8586093
:101A80005846DAE720684146884201D0A84201D191
:101A90002F4800E02F48D7F800C02F4B40F61F72A8
:101AA000BCF1000F2DD0D0F808C094F838802CF489
:101AB000604C4CEA483CD7F804804CEA080CC0F86B
:101AC00008C0D4F800C08C4501D0AC4504D1896869
:101AD000AB6801F0010109E0D9F80810DAF8085004
:101AE00001F0010105F001059B68294303F00103A2
:101AF0001943C3D1BB6839681943836893431943B9
:101B00001DE0876827F46047876027688F4201D00F
:101B1000AF4204D18968AB6801F0010109E0D9F84E
:101B20000810DAF8085001F0010105F001059B6882
:101B3000294303F001031943A0D1816891438160D7
:101B40009CE7000000040050000500500001005018
:101B50000003005000070050000600502DE9F84F28
:101B600000270446009790F85800DFF81C840D46C3
:101B7000B946012811D0012684F85860206803F086
:101B8000EBFE60B1E06D40F02000E0655FF0010722
:101B900084F858903846BDE8F88F0220FBE7D5E975
:101BA00000210C23206803EA91131844036B01F011
:101BB0001F014FF01F0C0CFA01FCC2F3846223EAF0
:101BC0000C038A4013430363206803F0C5FE82467A
:101BD000206803F0BDFE5AEA00003CD1AA682968DB
:101BE0002068B2F1004F37D003F0C6FE206841698B
:101BF00021F00041416120686969C268C2F3C102F5
:101C0000520091402A69042A31D000EB82002B68EF
:101C1000026EDFF878C303F0F84302EA0C020B43CC
:101C20001A4342F00041016622682869A96902EB63
:101C30008000026E22F080720A430266297F2268C9
:101C40002869012910D0002102EB8000026E22F0E9
:101C500000720A4302667DE0002203F08DFE2068D8
:101C6000416941F00041C5E74FF00071ECE7002108
:101C700003F068FE400320684FF0000172D003F0CB
:101C800061FE90FAA0F0B0FA80F1286842036ED0AD
:101C900090FAA0F0B0FA80F0814204D100221146FF
:101CA000206803F078FE0121206803F04BFE40031A
:101CB00020684FF001015DD003F044FE90FAA0F0DF
:101CC000B0FA80F12868420359D090FAA0F0B0FA37
:101CD00080F0814204D100220121206803F05BFEE4
:101CE0000221206803F02EFE400320684FF002011D
:101CF00048D003F027FE90FAA0F0B0FA80F12868EF
:101D0000420344D090FAA0F0B0FA80F0814204D1AE
:101D100000220221206803F03EFE0321206803F028
:101D200011FE400320684FF0030133D003F00AFE98
:101D300090FAA0F0B0FA80F1286842032FD090FA10
:101D4000A0F0B0FA80F0814204D100220321206883
:101D500003F021FE2068816811F0010F22D0ACE071
:101D600000E004E003F0EEFDC0F384618DE7C0F312
:101D7000846091E703F0E6FDC0F38461A2E7C0F35D
:101D80008460A6E703F0DEFDC0F38461B7E7C0F32B
:101D90008460BBE703F0D6FDC0F38461CCE7C0F3F9
:101DA0008460D0E72A7B296850F8B03FC1F3120C59
:101DB00023EA0C0302F0180C754A22FA0CF20A40CE
:101DC00013430360E968414577D1286841031CD07B
:101DD00090FAA0F1B1FA81F1491C01F01F01092923
:101DE0004FEA403132D8002912D000BF90FAA0F15A
:101DF000B1FA81F101F1010101F01F0106FA01F6CA
:101E000009D100BFC0F3846109E0C0F38461E3E756
:101E1000C0F38461EEE790FAA0F1B1FA81F101F12B
:101E2000010101F01F0146EA816102D1C0F3846023
:101E300003E090FAA0F0B0FA80F000F1010000F0A9
:101E40001F0000EB400041EA005132E000290ED0B3
:101E500090FAA0F1B1FA81F101F1010101F01F0145
:101E600006FA01F606D100BFC0F3846106E0C0F3B4
:101E70008461F1E790FAA0F1B1FA81F101F1010179
:101E800001F01F0146EA816102D1C0F3846003E0E2
:101E900090FAA0F0B0FA80F000F1010000F01F000D
:101EA0003C4A00EB400002EB005041EA000141F0E7
:101EB0000071AA68206803F05FFD37482B68034271
:101EC0003FF466AE21684FF0A04C3448344E354D97
:101ED000614501D0A94201D1024600E03246926834
:101EE000DFF8C48002F0E072434503D0DFF8BC8025
:101EF000434521D15FEA02281ED4614506D02C4B10
:101F000099427FF445AEA94200D0304642F4000128
:101F1000826822F0E0720A438260264826490068FF
:101F2000B0FBF1F0401C00EB4000800000E0401EE0
:101F300000900028FBD12BE6DFF8808043450FD1CD
:101F40005FEAC2180CD4A94202D11D4B9942F2D0CB
:101F5000614502D0A94200D0304642F080710CE0C9
:101F6000DFF860804345E6D15302E4D4A942E2D0D1
:101F7000614500D0304642F48001826822F0E07270
:101F80000A43826004E6000000007F4000F0FF0387
:101F9000FFFF0700000020FE000008800003005043
:101FA0000007005000010050000021C31000C09045
:101FB0000006005060000020400D0300000052C7E2
:101FC00000050050000084CB704770477047000048
:101FD000F8B54FF0000504002E46009502D0E06DE4
:101FE00010B107E00120F8BD204600F009F926668F
:101FF00084F8586020688168C1F3407119B1816824
:10200000734A1140816020688168C1F3007189B909
:102010008168704A114041F0805181606E486F497B
:102020000068B0FBF1F04000801C00E0401E009012
:102030000028FBD120688168C1F3007141B9E16DCE
:1020400041F01001E165216E41F001012166012599
:1020500003F082FCE16DC90600D430B1E06D40F0C0
:102060001000E06501252846F8BDE06D20F4807081
:1020700040F00200E0652068816811F0010F27D16F
:102080004FF0A043564A984201D0904204D199683B
:10209000966801F001010AE052498968524E01F048
:1020A0000101B66806F001063143504EB66806F0ED
:1020B000010631430CD1984201D0904201D14C48E5
:1020C00000E04C486168826822F47C120A43826016
:1020D000E168E06B627F0843A16841EA423108434E
:1020E00094F8241040EA0140012904D1218D424A8C
:1020F00002EB41410843E16A29B101F47871226B96
:10210000014342EA01002268D1683C4B1940014377
:10211000D16020680169626B21F040611143016167
:10212000206803F015FC70BB207F94F838102268FB
:10213000800340EA4100D16844F20203994301431D
:10214000D16020690028206801690AD041F48031FB
:102150000161206850F8C01F22696FF30D0111431F
:1021600007E021F480310161206850F8C01F6FF34F
:102170000D01016094F8400001280CD0206801692D
:1021800021F001010161606901282068016B21F0E3
:102190000F0111D013E0D4E911010843D4E913125F
:1021A0001143084321680A6940F2FC739A431043C3
:1021B00040F001000861E6E7226A521E1143016304
:1021C000E06D20F0020040F00100E0654BE7000008
:1021D000C0FFFF5FC0FFFF7F60000020400D0300D5
:1021E000000100500004005000050050000600509F
:1021F00000030050000700500000FEFF0740F0FF02
:102200002DE9F04F9BB00646142115A8FEF7A5F95D
:1022100054216846FEF7A1F94FF4004031680025CB
:1022200082034A4F4A4C4FF003084FF080094FF4A5
:10223000807A4FF4806BB1F1A04F10D0454B99429A
:1022400051D100901192684601F070F908B1FFF782
:1022500088FB3868401C3860012847D04EE0009069
:102260001192684601F062F908B1FFF77AFB38680D
:10227000401C3860012807D1E06C40F40050E06455
:10228000E06C00F400501A90E06C40F00400E06450
:10229000E06C00F004001A90E06C40F00100E06493
:1022A000E06C15A900F001001A900420444681E872
:1022B0003100294800F00AFC15A90F2081E83100FF
:1022C0004FF0904000F002FC254C244801C405204A
:1022D000E4E802052020A4E8200E64E80705204871
:1022E0002CE07465A6621BB0BDE8F08FE06C40F492
:1022F0000050E064E06C00F400501A90E06C40F094
:102300000100E064E06C179500F001001A90A02035
:10231000CDE9150815A94FF0904000F0D7FB104CFF
:102320000E486034283001C42420E4E8020520204F
:10233000A4E8200E64E807050948603000F000FBBF
:102340000028CED0FFF70DFBCBE7000050000020A7
:102350000010024000010050000800480800024040
:10236000180900202DE9F047044600684FF0A04806
:102370003D4F91468A46404501D0B84201D13B4984
:1023800000E03B49896801F01F0503F0E5FA0028E9
:1023900068D194F85800012864D0012084F85800CE
:1023A00034492068884201D1012000E00020401E0D
:1023B00028424FF0000605D0052D03D0092D01D08D
:1023C000012003E02046FEF71FFF18B184F8586093
:1023D000BDE8F087E06D40F60161884340F480700D
:1023E000E0652068B84201D1414605E022498842B3
:1023F00001D1224900E00146814200D01DB9E06DC3
:1024000020F48010E065E06DC00404D5206E20F05B
:102410000600206600E02666616D1948C862616D9D
:1024200018480863616D1848486321681C200860DB
:1024300084F858602068416841F0100141602068CC
:10244000C16841F00101C16021684B4652464031EC
:10245000606D00F0D5FA21688A680C4B1A40121D95
:102460008A60B5E70220B3E7000100500003005086
:102470000007005000060050000500500004005006
:102480000D1100088F11000875110008C0FFFF7FB3
:102490002DE9F84F04004FF000000546009003D0EE
:1024A00021680968002901DA0125FCE0617F21B972
:1024B00020772062204600F00BF921680868E66862
:1024C00000F40003D4E90120104362693243104351
:1024D000226910430A68754E324002430A60D4F8FC
:1024E00000C0DCF8000000020ED56BB970487149DD
:1024F0000068B0FBF1F0401C00EB8000800000E0C1
:10250000401E00900028FBD16B486B4914308C456D
:1025100002D14FF400111EE06749091D8C4502D11C
:102520004FF4800117E0644908318C4501D18906D8
:1025300011E061490C318C4502D14FF080410AE035
:102540005D4910318C4501D1C90604E0844501D1B3
:10255000012100E00221A269584B92465FEA82788D
:10256000574E584AA3F10407A6F1040977D05FEA51
:10257000CA6803F1040A06F1040B0BD5844501D0A7
:10258000944501D1D44600E0DC46DCF8008048EAFE
:1025900001080AE0844501D0944501D1D44600E009
:1025A000DC46DCF8008028EA0108CCF8008094F8CA
:1025B00018C0DFF818A15FEA8C68DFF80CC1D4F806
:1025C000008009D5804502D0904500D0D446DCF883
:1025D000008048EA010808E0804502D0904500D01C
:1025E000D446DCF8008028EA0108CCF80080D4F852
:1025F00000C0844501D0944504D1DFF8CCC00CF173
:10260000080C03E0DFF8C4C00CF1080CCCF8001093
:1026100094F818C05FEA8C7CD4F800C009D58445D2
:1026200001D0944502D11E680E4308E033680B4385
:1026300009E0844501D0944503D11E688E431E6095
:1026400002E033688B433360237EDB070DD02368C1
:10265000834201D0934203D1386808430CE00DE077
:10266000D9F8002048460A4318E02368834201D085
:1026700093420FD138688843386010E0844501D018
:10268000944503D11E688E431E60EEE733688B438A
:102690003360EAE7D9F8002048468A430260607F49
:1026A00008B9012060772846BDE8F88F0F7E00FF4B
:1026B00060000020400D030000020140240401409E
:1026C00004040140180201402C0401400C040140A4
:1026D00010B586B0044614216846FDF73EFF236816
:1026E000154C002115480322A3420ED1C36C43F0C0
:1026F0000203C364C06C00F0020005900220009049
:10270000CDE9012169460E4812E00B4C241DA3427D
:1027100010D1C36C43F00103C364C06C00F001002E
:102720000590A0200090CDE9012169464FF090402E
:1027300000F0CCF906B010BD0002014000100240CC
:102740000004004870B5040004D094F8210000256E
:1027500010B106E0012070BD84F82050204600F042
:102760000BF865626560A560E56025610120656123
:1027700084F82100002070BD2DE9F84F064600685E
:102780001E49884238D11E48816C41F0080181649D
:10279000806C1D4C00F0080000901A4820607020EA
:1027A0000025C4E9010504F10C0080274FF40078EE
:1027B0004FF400694FF0200A80E8A0072046256208
:1027C00000F0BEF808B1FFF7CCF8F461A6620E4C39
:1027D0000C486034143020607120606004F10801FE
:1027E000102081E8A1072046256200F0A9F808B171
:1027F000FFF7B7F8B461A662BDE8F88F000C02409D
:102800000010024044000240480A002070B590F8D1
:102810002520002401212346022A07D00422C26376
:1028200080F8251080F82430012429E0026815681A
:1028300025F00E0515600268156825F00105156084
:10284000826C156825F48075156090F84420056C3D
:1028500002F01F0201FA02F26A60D0E91325556006
:10286000426D32B1156825F480751560D0E91625E2
:10287000556080F8251080F82430816B01B18847BD
:10288000204670BDF0B4016C0C6801680D6890F8CA
:10289000442002F01F06042202FA06F3234211D05C
:1028A0006B070FD50B689B0603D40B6823F004035A
:1028B0000B6090F8441001F01F018A40016C4A60DF
:1028C000016B1DE0022303FA06F727424FF0000CCC
:1028D0004FF0010218D0AF0716D50C68A40605D436
:1028E0000C6824F00A040C6080F8252090F844104D
:1028F00001F01F018B40016C4B6080F824C0C16A5D
:1029000000291AD0F0BC08470823B340234214D052
:102910002B0712D50B6823F00E030B6090F84410C0
:10292000036C01F01F0102FA01F15960C26380F8E3
:10293000252080F824C0416BE2E7F0BC704700001E
:1029400070B504000CD02B4A21681420914209D2A2
:10295000294A0A44B2FBF0F08000606427480AE08C
:10296000012070BD234A52420A44B2FBF0F08000BD
:102970006064204808382064022084F825000A6832
:1029800047F6F0708243D4E902031843D4E90435D2
:102990002B431843A3691843E3691843236A184378
:1029A000104308602046FEF7B1FCA0680025B0F592
:1029B000804F00D16560A16C20790860D4E91301D3
:1029C00041606068401E032808D82046FEF7BEFC20
:1029D000606D0560D4E91601416002E06565A5659A
:1029E000E565E563012084F8250084F82450002083
:1029F00070BD000008040240F8FFFDBF0000024067
:102A000070B5044690F82400002501280CD0012060
:102A100084F8240094F825600020012E06D084F864
:102A200024000225284670BD022070BD022684F8CD
:102A30002560E0632068066826F0010606602046EF
:102A4000FEF796FC206B00282068016802D041F058
:102A50000E0106E021F0040101602068016841F0E8
:102A60000A010160A06C0168C90303D5016841F443
:102A700080710160606D18B1016841F4807101607E
:102A80002068016841F001010160CBE770B50446A0
:102A900000F04AF90546601C02D00448406804442E
:102AA00000F042F9401BA042FAD370BD5400002050
:102AB00070470000044910B50A68024202D008605D
:102AC000FFF7F6FF10BD0000140401402DE9F04FA0
:102AD000DFF82092002301260324A9F1040B85B01E
:102AE0000F2709F1040AABF1040EFAE006FA03F528
:102AF0002A407CD091F804C00CF0030CBCF1010F0B
:102B000002D0BCF1020F26D1D0F808C0CDF800C029
:102B10004FEA430C04FA0CF8CDF810C0DDF800C001
:102B20002CEA080CCDF800C0D1F80C80DDF810C0FC
:102B300008FA0CF8DDF800C048EA0C08C0F8088074
:102B4000D0F804C02CEA050C0D79C5F300159D40A2
:102B500045EA0C0545600D79ED43AD070ED0C5681B
:102B60004FEA430804FA08FC25EA0C05D1F808C02E
:102B70000CFA08FC4CEA050CC0F80CC00D7905F005
:102B80000305022D16D1DD0800EB850CCDF808C039
:102B9000DCF820805D074FEAD56C07FA0CF528EACF
:102BA00005080D6905FA0CF5DDF808C045EA0805C9
:102BB000CCF8205005684FEA430CCDF808C004FA61
:102BC0000CFC25EA0C0591F804C00CF00308DDF8B4
:102BD00008C008FA0CF848EA0508C0F800804D68FB
:102BE00015F4403F7CD0444DD5F860C000E077E05C
:102BF0004CF0010CC5F860C02D6E23F0030C05F0FD
:102C0000010500953D4D65440295AD684FEA837C12
:102C10004FEA1C7807FA08FC25EA0C05B0F1904F42
:102C200006D0DFF8DCC0604505D14FF0010C20E094
:102C30004FF0000C1DE0DFF8CCC0604502D14FF032
:102C4000020C16E0DFF8C0C0604502D14FF0030C63
:102C50000FE0DFF8B8C0604502D14FF0040C08E087
:102C6000DFF8ACC0604502D14FF0050C01E04FF039
:102C7000060C0CFA08FC4CEA050C029DC5F808C0CD
:102C8000D9F80050CC46D1F8048095435FEAC828B3
:102C900000D51543CCF80050DAF80050D446D1F8EE
:102CA000048095435FEA882800D51543CCF800508E
:102CB000DBF80050DC46D1F8048095435FEA8838A1
:102CC00000D51543CCF80050DEF80050F446D1F89A
:102CD000048095435FEAC83800D51543CCF800500E
:102CE0005B1C0A6832FA03F57FF400AF05B0BDE85B
:102CF000F08F000008040140001002400000014075
:102D00000004004800080048000C0048001000487B
:102D1000001400480069084000D0012070470AB143
:102D20008161704781627047014880687047000088
:102D30005400002010B590F8DC20012A21D0012297
:102D400080F8DC20022380F8DD304B1C1BD00368A8
:102D5000D3F8CC4344F00204C3F8CC430368D3F85F
:102D6000CC4324F00C040C43C3F8CC430168D1F8E5
:102D7000CC3343F00103C1F8CC3380F8DD200020D0
:102D800010BD022010BD0168D1F8CC3323F002033E
:102D9000C1F8CC33EAE7000070B590F8DD30022BC3
:102DA0003CD090F8DC30012B38D0012500F8DC5FF6
:102DB000022343701388948803F4E053C4F3080497
:102DC0001C4313896FF07E4603F400732343148A77
:102DD00004F480441C43938903F400432343948AFE
:102DE00006EA04441C43936903F000732343146A06
:102DF000D26904F080441C4302F00042224350F8A0
:102E0000DC3CB82404EBC1141959054E3140114380
:102E10001951457000210170084670BD022070BD37
:102E20000020003C38B5040056D0022084F8DD00B4
:102E30000025C4F8E050C4F8E450C4F8E850C4F8E1
:102E4000EC50C4F8F050C4F8F450C4F8F850207AAC
:102E5000C0071BD021492068884208D12048016E54
:102E600041F080610166006E00F080600090216892
:102E7000086820F44042208A00F44040104320F4C7
:102E80004052A08A00F4405010430860204600F0F1
:102E900029F8207A800708D52168086820F4407254
:102EA000A08900F4407010430860012084F8DD0020
:102EB00084F8DC505FF00001C1EBC10004EB80003E
:102EC000491C8561C561056245628562C9B20563B9
:102ED0000629F1D9002038BD012038BD0068014025
:102EE0000010024008B500680649884208D106482B
:102EF000016E41F080610166006E00F0806000901C
:102F000008BD00000068014000100240F0B587B025
:102F1000044614216846FDF720FB1C4920688842BE
:102F200032D11B48C16C41F00201C164C16C01F097
:102F300002010591C16C41F00401C164C06C02251D
:102F400000F0040005904FF4405000268DE8610029
:102F500003240D27CDE9034769460E48FFF7B6FD68
:102F6000CDE90347C0208DE861000B4F6946384624
:102F7000FFF7ACFD2002CDE90005CDE9026469460A
:102F800004943846FFF7A2FD07B0F0BD0068014089
:102F900000100240000400480008004870B50D46CB
:102FA0000446FFF7C1FE064607E0681C05D0FFF7A0
:102FB000BBFE801BA8420DD865B12068D0F88803FD
:102FC000C043C003F1D4012084F8DD00002084F860
:102FD000DC0070BD072084F8DD00032070BD70B5F3
:102FE00090F8DD30022B23D0022380F8DD30062953
:102FF00020D08023046803EBC115635923F0070632
:103000009368334323F01806D36833436351942500
:10301000046805EBC115136863519824036804EB39
:10302000C11152685A50012180F8DD10002070BD96
:10303000022070BD0368196821F0070491682143DC
:1030400021F01804D168214319600368116859619F
:10305000516802689161E6E72DE9F04F90F8DD4094
:10306000022C25D090F8DC40012C21D04FF0010932
:1030700080F8DC90022480F8DD4000274FF0070C38
:10308000062918D09C2404EBC116012A39D08024CB
:10309000A8254FF4005A4FF4405B05EBC11504EB33
:1030A000C114022A2FD0042A45D0082A0BD144E0AB
:1030B0000220BDE8F08F012A0AD0022A0CD0042A8F
:1030C0000ED0082A10D080F8DDC080F8DC700EE049
:1030D00002681968D1610AE002681968516206E065
:1030E00002681968916202E002681968D16290F87A
:1030F000DD10072948D080F8DD9080F8DC700020D2
:10310000D7E7196835E04FF0A408D0F800C008EB05
:10311000C1111A684CF801205968002901680A5940
:1031200022F440522ED00A5101680A59D3F804C043
:1031300042EA0C0218E0196821E04FF0AC08D0F820
:1031400000C008EBC1111A684CF801205968002929
:1031500001680A5922F4404214D00A5101680A5900
:10316000D3F804C042EA8C020A515968514503D190
:10317000996802689151BAE75945B8D199680268CF
:103180005151B4E70A51B2E7012092E710B590F827
:10319000DC20012A0ED0012200F8DC2F022343702C
:1031A00050F8DC3C1C680C431C604270002101702C
:1031B000084610BD022010BD70B5044690F8DD0031
:1031C000022811D094F8DC0001280ED0012584F8E3
:1031D000DC50022084F8DD00204601F03CFD84F83C
:1031E000DD50002084F8DC0070BD022070BD10B5F9
:1031F00090F8DC20012A10D0012200F8DC2F0223F5
:10320000437050F8DC3CD3F894430C43C3F8944328
:10321000427000210170084610BD022010BD2DE94A
:10322000F041044690F8DD0015460E46022826D0EF
:1032300094F8DC00012821D0012784F8DC700220FA
:1032400084F8DD00062E1CD0204601F073FDC6EB8D
:10325000C60004EB80002968016269684162A968C0
:103260008162E968C162296901633146204601F043
:1032700075FC062E15D0E86A40B112E00220BDE8C8
:10328000F0811146204601F09DFCE0E78021206896
:1032900001EBC6114258EB6D22F4007242EA432260
:1032A000425084F8DD70002084F8DC00E7E72DE967
:1032B000F041044690F8DD00022824D094F8DC00A8
:1032C00001281FD0012584F8DC50022084F8DD009D
:1032D000EC20266800EBC113F058176820F01000AE
:1032E00040EA071020F480175068384320F48037F4
:1032F000D068384320F40037906838439769012F2D
:1033000003D00CE00220BDE8F08120F00407106932
:10331000384320F002075069384340F00100F05074
:10332000204601F01BFC84F8DD50002084F8DC000E
:10333000E9E70000024881684268114481607047F3
:103340005400002010B50024032000F077F801207D
:1033500000F008F808B1012401E000F025F820464B
:1033600010BD000070B50E4E05460024706898B17F
:103370004FF47A71B1FBF0F00A490968B1FBF0F043
:1033800001F042F840B9102D06D200222946501E05
:1033900000F034F8356000E00124204670BD0000E4
:1033A00054000020600000200C4808B5016E41F078
:1033B00001010166016E01F001010091816D41F092
:1033C00080518165806D00F080500090052000F0F4
:1033D00035F8BDE8084000F0A1B800000010024038
:1033E000002809DB00F01F02012191404009800004
:1033F00000F1E020C0F8001170470000F0B40E4B5F
:103400001B680C46C3F30223C3F10705042D00D942
:103410000425191D072901D2002300E0DB1E012627
:1034200006FA05F1491E214099409E40761E16403D
:103430003143F0BC03F0B0BD0CED00E0064900F0F4
:10344000070208684FF6FF03184040EA0220034ACB
:1034500010430860704700000CED00E00000FA0522
:103460002B492C4B0A6832214A432B4940B1B0F515
:10347000007F086829D020F4C06040F480602CE010
:103480000868C0F34120022804D051F8800F20F4CE
:10349000807022E0D1F8800020F48070C1F88000B4
:1034A000086820F4C06040F400700860B2FBF3F0DC
:1034B000401C00E0401E4A69520501D50028F9D1A0
:1034C000486940050AD503207047C0F3412002280F
:1034D00006D051F8800F40F48070086000207047DB
:1034E000D1F8800040F48070C1F88000086820F4B2
:1034F000C06040F400700860B2FBF3F0401C00E0D4
:10350000401E4A695205DBD50028F9D1D8E70000F2
:103510006000002040420F000070004002488168B7
:1035200041F4804181607047007000402DE9F8430C
:10353000044600680026BB4D00035ED5A86D002739
:10354000C00008D4A86D40F08050A865A86D012780
:1035500000F080500090DFF8D092D9F8001041F4CC
:103560008071C9F80010FFF7DFFB804606E000BF5E
:10357000FFF7DAFBA0EB080002282BD8D9F80000EF
:10358000C005F5D5D5F8900010F4407014D0216D29
:10359000814211D0D5F89000D5F8901020F44070F9
:1035A00041F48031C5F89010D5F8901021F48031A5
:1035B000C5F89010C5F89000C00711D0FFF7B4FB14
:1035C000804641F2883907E0FFF7AEFBA0EB080127
:1035D000494501D903260BE0D5F890008007F3D5C3
:1035E000D5F89000216D20F440700843C5F8900094
:1035F0001FB1A86D20F08050A8652078C00707D0C3
:10360000D5F88800616820F003000843C5F88800F9
:103610002078800707D5D5F88800A16820F00C0035
:103620000843C5F888002078400707D5D5F88800FA
:10363000E16820F030000843C5F8880020780007D2
:1036400007D5D5F88800216920F0C0000843C5F8E7
:1036500088002078C00607D5D5F88800616920F475
:1036600040700843C5F888002078800607D5D5F853
:103670008800A16920F440600843C5F888002078DC
:10368000400607D5D5F88800E16920F4405008438A
:10369000C5F888002078000607D5D5F88800216A8B
:1036A00020F440400843C5F888002088C00507D5AD
:1036B000D5F88800616A20F440300843C5F88800D6
:1036C0002068800307D5D5F89C00A16A20F003008C
:1036D0000843C5F89C002088800507D5D5F88800E8
:1036E000E16A20F440200843C5F88800208840059E
:1036F0000FD5D5F88800216B20F440100843C5F899
:103700008800206BB0F5801F03D1E86840F480107A
:10371000E860208800050FD5D5F88800616B20F49B
:1037200040000843C5F88800606BB0F5800F03D1F6
:10373000E86840F48010E8602088C0040FD5D5F810
:103740008800A16B20F040700843C5F88800A06B8A
:10375000B0F1807F03D1E86840F48010E8602088F1
:103760004FF0006180040ED5D5F88800E26B20F0A0
:1037700040601043C5F88800E06B884203D1E868D8
:1037800040F48010E860208840040ED5D5F8880009
:10379000226C20F040601043C5F88800206C8842FD
:1037A00003D1E86840F48010E860208800040FD559
:1037B000D5F88800616C20F040500843C5F88800B7
:1037C000606CB0F1805F03D1E86840F48030E8605D
:1037D0002068C0030FD5D5F88800A16C20F04040C8
:1037E0000843C5F88800A06CB0F1804F03D1E868A9
:1037F00040F48030E860206840030FD5D5F89C0085
:10380000E16C20F440100843C5F89C00E06CB0F572
:10381000001F03D1E86840F48010E8603046BDE83E
:10382000F883000000100240007000402DE9F047CE
:103830000E4605004FF0000725D0DFF8AC81D8F820
:10384000000000F00F00B0420CD2D8F8001021F0B8
:103850000F013143C8F80010D8F8000000F00F0045
:10386000B04210D12968614CC80741F2883A5AD059
:103870006868DFF87C91032808D0022820682DD0E2
:10388000400500282CDB0120BDE8F087206880017E
:10389000F9D5E06800F00302E068C0F30310401CB3
:1038A000032A19D0534A00BFB2FBF0F0E268C2F31A
:1038B00006225043E268C2F34162521C5200B0FB40
:1038C000F2F0484517D9A06810F0F00F0CD0880727
:1038D00011D5A86840B10EE0474AE5E78003D0E77C
:1038E00000F0B6F8484506D9A06820F0F00040F096
:1038F0008000A0608027A068696820F0030008436A
:10390000A060FFF711FA814606E000BFFFF70CFA4E
:10391000A0EB090151453AD8A068696800F00C0095
:10392000B0EB810FF2D12868810714D5400703D589
:10393000A06840F4E060A0602878000705D5A06882
:1039400020F4605040F4E060A060A068A96820F016
:10395000F000084304E0802F03D1A06820F0F000BD
:10396000A060D8F80010404601F00F01B14216D90E
:10397000016821F00F0131430160FFF7D5F90746D7
:1039800007E000BFFFF7D0F9C11B514501D9032063
:103990007AE7D8F8000000F00F00B042F2D12878A2
:1039A000400705D5A068E96820F4E0600843A060FE
:1039B0002878000706D5A068296920F4605040EAFD
:1039C000C100A06000F044F8A1680C4AC1F30311E3
:1039D000515C01F01F01C8400949086009480068AE
:1039E000BDE8F047FFF7BEBC0020024000100240D7
:1039F00000B4C4040024F40040787D0176C90208B4
:103A000060000020540000200548064900688968CD
:103A1000054AC1F30221515C01F01F01C840704703
:103A2000600000200010024086C9020805480649CF
:103A300000688968054AC1F3C221515C01F01F0189
:103A4000C8407047600000200010024086C902088C
:103A5000184910B58868C0F381021748012A0BD0B5
:103A60008A68164BC2F38102022A06D08A68C2F322
:103A70008102032A03D0002010BD184610BDCA6879
:103A800002F00304CA68C2F30312521C032C02D0D2
:103A9000B0FBF2F001E0B3FBF2F0CA68C968C2F310
:103AA00006225043C1F34161491C4900B0FBF1F0CB
:103AB00010BD0000001002400024F40040787D0199
:103AC0002DE9F84304007AD02078F84DC00747D09C
:103AD000A868E96800F00C0001F003010C2802D08E
:103AE000082817D001E0032914D06068B0F5803FA2
:103AF00017D0B0F5A02F286817D020F480302860A8
:103B0000286820F4802028606068E0B1FFF70CF995
:103B1000064614E02868800322D560680028D2D0C9
:103B20001EE0286840F48030EDE740F480202860F3
:103B3000F7E700BFFFF7F8F8801B642870D8286803
:103B40008003F7D50CE0FFF7EFF8064605E000BF6D
:103B5000FFF7EAF8801B6428F0D828688003F7D4C0
:103B6000207880074CD5A868E96800F00C0001F0C7
:103B700003010C2802D004280DD001E002290AD04C
:103B8000E068002828682BD040F480702860FFF798
:103B9000CBF8064619E02868400502D5E068002801
:103BA00091D06868217C20F0FE4040EA01606860A6
:103BB000BF480068FFF7D6FB002800D120E072E183
:103BC000FFF7B2F8801B0228B8D828684005F7D55F
:103BD0006868217C20F0FE4040EA016068600FE0E8
:103BE00020F480702860FFF79FF8064605E000BFCC
:103BF000FFF79AF8801B0228A0D828684005F7D460
:103C00002078000729D560690028D5F8940013D0E2
:103C100040F00100C5F89400FFF786F8064606E07C
:103C200090E000BFFFF780F8801B022886D8D5F807
:103C300094008007F6D510E020F00100C5F894004C
:103C4000FFF772F8064604E0FFF76EF8801B0228C3
:103C500078D8D5F894008007F6D42078400761D54D
:103C6000A86D0026C00008D4A86D40F08050A8655B
:103C7000A86D012600F0805000908E480168C905AB
:103C800011D40168804641F480710160FFF74CF85F
:103C9000074604E0FFF748F8C01B022852D8D8F8BE
:103CA0000000C005F6D5A068012815D00528D5F874
:103CB000900016D020F00100C5F89000D5F89000D3
:103CC00020F00400C5F89000A06841F28838B8B12F
:103CD000FFF72AF807460EE0D5F8900040F0010003
:103CE000F0E740F00400C5F89000F5E7FFF71CF896
:103CF000C11B414526D8D5F890008007F6D50CE0C9
:103D0000FFF712F8074604E0FFF70EF8C11B414524
:103D100018D8D5F890008007F6D41EB1A86D20F011
:103D20008050A8652078800629D5A0690028D5F89C
:103D3000980013D040F00100C5F89800FEF7F4FF9A
:103D4000064606E075E000BFFEF7EEFF801B022886
:103D50006FD8D5F898008007F6D510E020F0010064
:103D6000C5F89800FEF7E0FF064604E0FEF7DCFF2A
:103D7000801B02285DD8D5F898008007F6D4E0694A
:103D8000F0B3A968C1F3810103295DD00228286836
:103D900020F08070286003D0FEF7C6FF04464BE099
:103DA000FEF7C2FF064604E0FEF7BEFF801B0228B6
:103DB0003FD828688001F7D4F4E908016FF00F02BA
:103DC00002EB01110843218A5204490802EB4151D8
:103DD000A26841EA02210843217D4FF07E42490852
:103DE00002EB41610843217B40EAC160E968324A45
:103DF00011400843E860286840F08070286000E0C7
:103E00005EE0E86840F08070E860FEF78DFF0446F1
:103E100005E000BFFEF788FF001B022809D82868CC
:103E20008001F7D54CE000BFFEF77EFF001B0228A3
:103E300002D90320BDE8F88328688001F4D4E8683B
:103E40001E490840E8603BE00128F3D0E868226A98
:103E500000F00301914226D1616A00F0F0020901ED
:103E6000103991421FD1A26A00F4FE41B1EB022F3A
:103E700019D194F82C2000F07841B1EBC26F12D127
:103E8000218E00F4C00249084905A1F500119142B4
:103E900009D194F8341000F0C06049084906A1F136
:103EA000007181420CD00120C4E7000000100240E4
:103EB00054000020007000400C809F01FCFFEEFECB
:103EC0000020B7E7704790F85D00704738B501688B
:103ED00004464A688868C043430606D5C30704D130
:103EE000D3435B0601D4E16C05E0830708D4D343D8
:103EF0001B0605D4216D01B02046BDE830400847BF
:103F0000830603D5430601D5C30551D4D3439B068D
:103F10004ED443060AD494F85D30032B49D0236E67
:103F200043F004032366CB688B680093830609D4AF
:103F3000236E43F0010323668B6800930B6823F024
:103F400040030B60C00506D4206E40F008002066D8
:103F5000206880680090206E002829D02068416881
:103F600021F0E0014160012084F85D00900701D458
:103F7000D00722D02068416821F003014160114D33
:103F8000A06D40B18563A06DFEF740FC18B1206EB6
:103F900040F040002066606D002809D08563606DA8
:103FA000FEF734FC002803D0206E40F0400020666D
:103FB00038BDC8688868009038BD2046FFF782FF8A
:103FC00038BD0000D965000870B5040009D0606AEA
:103FD000002540B125616561A56294F85D0040B19E
:103FE0000CE0012070BD6068B0F5827FF4D0E5611F
:103FF000F2E784F85C50204600F05CF8022084F878
:104000005D002068016821F040010160E1684FF423
:10401000E062914201D9002001E04FF48050B1F5F7
:10402000706F02D0914200D0A562A188228901F46C
:10403000827102F404421143227C02F00202114315
:10404000227D02F001021143228B02F4007211431F
:10405000227F02F03802114394F8202002F08002FF
:104060001143228D02F40052114322681160A169AC
:10407000042202EA114194F8242000F4805002F056
:104080001002114394F8342002F008021143A2896F
:1040900002F4706211430143206841602068C169E5
:1040A00021F40061C1612566012084F85D000020D3
:1040B00070BD000070B586B0064614216846FCF756
:1040C0004CFA2249306888423DD12149886D40F43C
:1040D00000408865886D00F400400590C86C40F091
:1040E0000400C864C86C002500F0040005904FF47B
:1040F000A05000900220CDE9010503200390062086
:10410000049069461348FEF7E1FC144C1248206005
:104110000F2060601020C4E902058020C4E9040576
:10412000A561E56120462562FEF70AFC08B1FDF7AE
:1041300018FC7465012202213320A662FFF75EF9A4
:104140003320FFF74DF906B070BD0000003C004081
:1041500000100240000800481C000240680C0020CB
:104160002DE9F84F984616468A460446FEF7DCFDD0
:10417000814694F85D00012820D1BAF1000F6FD07C
:10418000002E6DD094F85C00012817D0012784F828
:104190005C70032084F85D0000252566C4F838A013
:1041A000A687E6872564A4F84450A4F84650256500
:1041B000E564A068B0F5004F03D00CE00220BDE834
:1041C000F88F2068016821F04001016020680168D3
:1041D00041F48041016020680168490603D4016808
:1041E00041F040010160E068B0F5E06F606826D9F9
:1041F00008B1012E1FD1A06B21680088C86006E0BD
:1042000020688168890709D5A16B0988C160A06B06
:10421000801CA063E08F401EE0870CE0FEF784FD69
:10422000A0EB0901414503D3B8F1FF3F03D04BE0B8
:10423000B8F1000F48D0E08F0028E1D139E008B193
:10424000012E33D1E08F0128A06B03D921680088AB
:10425000C86010E021680078087314E0E08725E06A
:1042600043E020688168890713D5E18F0129A16B9C
:1042700007D90988C160A06B801CA063E08F801EF5
:10428000ECE709780173A06B401CA063E08F401E2F
:10429000E4E7FEF749FDA0EB0901414503D3B8F17E
:1042A000FF3F03D010E0B8F1000F0DD0E08F0028E1
:1042B000D7D14A464146204602F0DFF908B1202016
:1042C0002066A06830B109E084F85D7084F85C5025
:1042D000032074E72068C1688068009084F85D70EE
:1042E00004F85C5F60680028F3D0012067E70000F5
:1042F00070B5044690F85D0001281ED1D9B1D2B145
:1043000094F85C00012818D0012084F85C00032395
:1043100084F85D3000252566A163A287E2872564C5
:104320002565E564A4F84450A4F84650A168B1F5A9
:10433000004F04D00DE0012070BD022070BD216847
:104340000A6822F040020A6021680A6842F480424A
:104350000A60626D28491163626D2849D162626DFD
:1043600027495163616D8D6321684A6822F4804258
:104370004A60E168B1F5E06F10D8616D8969B1F507
:10438000806F0BD1E18FC90717D021684A6842F4CA
:1043900080424A60E18F00EB5100E087E38F2268A2
:1043A000A16B0C32606DFEF72BFB70B1206E40F0FC
:1043B0001000206684F85C50BDE72068416821F455
:1043C00080414160E08F4008E7E7206801684906C6
:1043D00003D4016841F04001016084F85C5020681A
:1043E000416841F0200141602068416841F00201CC
:1043F0004160002070BD00000D66000817660008CF
:10440000EB6500087047704710B5401EB0F1807F23
:1044100001D3012010BD4FF0E02460610F2160172F
:1044200002F0BAFD0020A06107202061002010BD2D
:10443000704770477047704770477047F0B590F805
:104440003C20012A43D0012580F83C50022280F80C
:104450003D2003685A689C681E4E1F4FDFF87CC0E1
:10446000B34203D0BB4201D0634504D122F4700EA5
:104470004A6842EA0E02DFF868E002EA0E02D1F86A
:1044800000E04EEA020EC3F804E00268B24212D025
:10449000B2F1804F0FD0134B9A420CD0124B9A427C
:1044A00009D0124B9A4206D0BA4204D0104B9A421D
:1044B00001D0624504D1896824F0800319439160DA
:1044C00080F83D50002180F83C100846F0BD0220E5
:1044D000F0BD0000002C01400034014000500140BC
:1044E0008FFFFFFD0004004000080040000C00406A
:1044F00000400140704710B5040003D094F83D001F
:1045000010B107E0012010BD002084F83C002046D7
:1045100000F022F8022084F83D00211D206802F0FE
:1045200019FA012084F8480084F83E0084F83F001E
:1045300084F8400084F8410084F8420084F8430085
:1045400084F8440084F8450084F8460084F8470065
:1045500084F83D00002010BD08B5154A01681548D3
:1045600091420ED1816D41F010018165806D012273
:1045700000F01000009000213620FEF73FFF3620AB
:1045800010E00D4A914211D1816D41F02001816509
:10459000806D002200F02000009001213720FEF7FE
:1045A0002DFF3720BDE80840FEF71ABF08BD000008
:1045B00000100040001002400014004090F83D1030
:1045C000012901D001207047022180F83D100168C7
:1045D000CA6842F00102CA6000681349884214D0D8
:1045E000B0F1804F11D0114988420ED01049884255
:1045F0000BD01049884208D00F49884205D00F4996
:10460000884202D00E49884207D181680D4A114084
:10461000062906D0B1F5803F03D0016841F00101C1
:104620000160002070470000002C014000040040A1
:1046300000080040000C00400034014000400140F0
:10464000005001400700010070472DE9F041044689
:104650000068C66805694FF00007A90713D5B107C0
:1046600011D5F91E0161012020772068806980073B
:10467000204602D0FFF7E8FF04E000F0B7F820463C
:1046800000F0B5F82777680716D5700714D52168AC
:104690006FF004000861022020772068806910F420
:1046A000407F204602D0FFF7CFFF04E000F09EF8E5
:1046B000204600F09CF82777280715D5300713D53A
:1046C00021686FF008000861042020772068C06925
:1046D0008007204602D0FFF7B7FF04E000F086F81D
:1046E000204600F084F82777E80616D5F00614D5A2
:1046F00021686FF010000861082020772068C069E9
:1047000010F4407F204602D0FFF79EFF04E000F047
:104710006DF8204600F06BF82777E80708D0F0071F
:1047200006D021686FF001000861204600F060F8B3
:10473000280601D4A80408D5300606D521686FF4F0
:10474000025008612046FFF774FEE80508D53006E0
:1047500006D521686FF4807008612046FFF768FE77
:10476000680608D5700606D521686FF0400008611C
:10477000204600F013F9A80608D5B00606D5216832
:104780006FF0200008612046FFF754FEE80208D5CC
:10479000F00206D521686FF4801008612046FFF70B
:1047A0004BFEA80208D5B00206D521686FF40010B0
:1047B00008612046FFF73FFE680208D5700206D563
:1047C00021686FF4800008612046FFF736FE28025A
:1047D0000AD5300208D521686FF400000861204630
:1047E000BDE8F041FFF786BEBDE8F0817047704735
:1047F00070B506466148624C864272D1614DA31D78
:104800009A1E288820826888E081A8886081E888CC
:1048100020812889A08104F140004188008802F0AD
:1048200035F804F10A01881E02F01AF8208900EE1A
:10483000100AB8EE400A9FED541AC0EE010AC4ED0A
:10484000060A608900EE100AB8EE401ADFED4F1A32
:1048500004F10C0205F5F87081EE210A84ED070AD7
:1048600020EE800A84ED0B0AB5F90810FCF71CFC59
:10487000B5F9021004F10E0205F50170FCF714FC05
:10488000B5F9001004F1100205F50670FCF70CFCF8
:104890002078C82804D3C83820706088401C608005
:1048A00037481230007809283ED2DFE800F03D0595
:1048B0000C1330371B222900314A31483C32111F7A
:1048C000FBF7FEFE30E02E4A2D483C32111FFCF76C
:1048D000D0F929E02A4A2A483C32111FFCF7CFF9C7
:1048E00022E02BE0264A26483C32111FFCF7C4F98F
:1048F0001AE0234A22483C32111FFCF7C3F913E0A7
:104900001F4A1F483C32111FFCF7BFF90CE01C4A3C
:104910001B483C32111FFCF7BBF905E0184A184848
:104920003C32111FFCF7B7F91948A26B0168C1F8B6
:104930009C21E06BC1F89C02C1F81C03154886421B
:104940001AD160899FED141A00EE100A2089F0EE4A
:10495000412AF8EE400A00EE100AD4E90E01B0EE4A
:10496000412AF0EE411AB8EE400AFCF7FBFEBDE822
:104970007040012021F08CB870BD0000140D0020A3
:104980000400002094050020CDCC6842CDAC6844E2
:10499000080B0020C80C002000000000704790F8B1
:1049A0008410012918D0012180F884102421C0F836
:1049B000881001680A680B6823F001030B6022F07D
:1049C000005100224266036819602021C0F8881057
:1049D00080F88420104670470220704770B5044666
:1049E00090F8840001281DD0012084F88400242040
:1049F000C4F8880020680568026822F0010202609D
:104A00002068826822F060620A438260204602F0D9
:104A100013F8206805602020C4F88800002084F87E
:104A2000840070BD022070BD70B5044690F884000B
:104A300001281DD0012084F884002420C4F88800B7
:104A400020680568026822F001020260206882681E
:104A500022F060420A438260204601F0EDFF2068A8
:104A600005602020C4F88800002084F8840070BD10
:104A7000022070BD10B5040003D0D4F8880010B136
:104A800007E0012010BD002084F88400204600F0DB
:104A900027F82420C4F888002068016821F001016B
:104AA0000160A06A10B1204601F0E8FF204602F044
:104AB000C9F80128E6D02068416821F4904141609E
:104AC0002068816821F02A0181602068016841F036
:104AD000010101602046BDE8104002F033B800003B
:104AE00010B59CB00446142115A8FBF736FD5421DF
:104AF0006846FBF732FD16492068884226D101201E
:104B00000024CDE900046846FEF710FD08B1FCF76B
:104B100028FF1048016E41F480410166016E01F4E6
:104B200080411A91C16C41F00401C164C06C15A9A7
:104B300000F004001A90302015900220CDE91604F0
:104B40000720CDE918400448FDF7C0FF1CB010BD98
:104B5000003801400010024000080048072930D208
:104B6000DFE801F00A10161C222804000068D0F8C3
:104B7000841341F0010122E00068D0F8841341F071
:104B800002011CE00068D0F8841341F0040116E033
:104B90000068D0F8841341F0080110E00068D0F8F4
:104BA000841341F010010AE00068D0F8841341F04A
:104BB000200104E00068D0F8841341F04001C0F8FF
:104BC0008413704770B503681A68D3F8A0534C6912
:104BD00022F020022646144324F0C002202E2BD0BF
:104BE0008C69022C28D0032C2BD0042C2ED022F040
:104BF000E00200BF22F40064CA69224322F4806408
:104C00000A6A224322F0C0644A6A224322F0006406
:104C10008A6A2243CC6A22F0404242EA840222F0AD
:104C200000544A6B096B224325F4803421431A60F7
:104C30000068C0F8A01370BD22F0C00242F020024C
:104C4000D8E722F0800242F04002D3E722F040028F
:104C500042F08002CEE7F0B50024E426056806EBBA
:104C6000C11755F807C0B82606EBC116AE59402A41
:104C700020D00EDC082A2CD006DC012A1AD0022A09
:104C800027D0042A31D115E0102A13D0202A2CD1A4
:104C90001FE0B2F5007F1CD005DC802A19D0B2F5E8
:104CA000807F22D106E0B2F5806F03D0B2F5006FAD
:104CB0001BD10EE04FF0BC0E0EEBC11E5A6845F83A
:104CC0000E204FF0C00E05680EEBC1119A686A50B5
:104CD0000BE0C42404EBC1145A682A51C8250468A7
:104CE00005EBC1119A6862501024FE21A1401A6898
:104CF0002CEA010CA240D96842EA0C02A1401143FF
:104D00001A69D3F814C01546A2400A430CFA04FCF1
:104D100099694CEA020CA14041EA0C01082D06D128
:104D2000B20504D4B20102D4DA69A240114300688A
:104D3000C151F0BD2DE9F04F8024036804EBC11789
:104D4000DC5924F07044DC510568EC59E82303EB8E
:104D5000C1139E4655F803C0E42303EBC1139B46E1
:104D600055F803A0D5F8A033566924F02004344345
:104D7000202E24D09669022E21D0032E24D0042E7A
:104D800027D024F4D07400BF24F40066D4693443DF
:104D900024F48066146A344324F0C066546A3443B1
:104DA00024F00066946A344324F07046D46A344395
:104DB000566B24F40034B6F1005F0FD010E024F4F9
:104DC000C07444F02004DFE724F4807444F08004CD
:104DD000DAE724F0800444F48074D5E744F4003426
:104DE00024F04008946B2CF03F0C264644EA08045B
:104DF00024F48028946D44EA0804DFF8D08004EAA3
:104E00000804D2F8508048EA040992F83C40D2F8ED
:104E1000408004F03F0444EA0C0424F0004448EAD3
:104E20000408546C2AF4807C44EA0C04D2F848C08C
:104E3000BCF5606F02D0BCF5F05F01D1402E03D10C
:104E400024F4F0544CEA040424F48046D46C344333
:104E5000566D062927D2DFE801F003090F151B2143
:104E6000126B23F4003343EA42031CE0126B23F479
:104E7000802343EA820316E0126B23F4002343EA03
:104E8000C20310E0126B23F4801343EA02130AE01A
:104E9000126B23F4001343EA421304E0126B23F471
:104EA000800343EA821345F80790056845F80E80B1
:104EB000056845F80B40D424026804EBC111565034
:104EC0000068C0F8A033BDE8F08F0000FFFF06FEC9
:104ED000FEE7000001EE901AB8EE613AC0EE031A48
:104EE0009FED0F0A81EE803A01EE901A80ED0A3AAA
:104EF000B8EE613AC0EE831AC1EE800AC0ED0B0A2B
:104F000000EE901AF8EE601AC1EE210A80EE801AC7
:104F100080ED0C1A80ED0D2AC0ED0E2A81877047B6
:104F20000000C84202EE101AA0F86010B8EE422A43
:104F3000C0EE022AC0ED032AC0ED040A80ED051A76
:104F4000C0ED001AC0ED011A704703EE101AF8EE1A
:104F5000433A80EE233A83EE210AB2EE043A20EE81
:104F6000030A80ED0A0A00EE101AB8EE403A80EE0D
:104F7000830AC0EE210A00EE101AC0ED0B0AF8EE0B
:104F8000400A81EE200AC0EE210AB3EE040A20EEA8
:104F9000800A80ED0C0AC0ED001A80ED0D2AC0EDEC
:104FA0000E2A818770470000154910B501230A7841
:104FB000B0F5005F0FD0B0F5804F15D0B0F5004FC1
:104FC00008D1012A02D9A2F1010208E002D14FF072
:104FD0000300087010BD032A03D202F101020A7017
:104FE00010BDFDD10B7010BD064850F8220082683C
:104FF0001AB9054C0269A242F5D048604B7010BD49
:1050000064000020F40D002035610008F8B5054665
:10501000012630A31822A0210020009600F0A6FB54
:10502000384CB5F5005F05D0B5F5804F04D0B5F527
:10503000004F4DD1606843E0606833A10068FBF722
:10504000B3FA334D50B3606832A10068FBF7ACFA95
:1050500030B3606831A10068FBF7A6FA10B360684E
:1050600030A10068FBF7A0FAF0B160682FA10068DA
:10507000FBF79AFAD0B160682EA10068FBF794FAAA
:10508000B0B160682DA10068FBF78EFA90B160683E
:105090002CA10068FBF788FA70B10FE02E700DE0CC
:1050A00002200AE0032008E0042006E0052004E0D6
:1050B000062002E0072000E00820287060684068B1
:1050C000406860602670BDE8F840002000F02EB90E
:1050D000F8BD0000436F6E6669726D207769746871
:1050E00020746865206D6964646C65206B65793B2C
:1050F00063616E63656C2077697468206F7468659E
:1051000072732E0064000020477269640000000082
:10511000160000205374726F0000000044635F5358
:105120000000000044635F560000000044635F49D4
:105130000000000041635F530000000041635F56C0
:105140000000000041635F49000000002DE9F00FFE
:1051500028490A784FF480467700274901254FF403
:10516000005C9AB10A4691F8018012784FF000096C
:10517000531EDCB2531C4FF0030ADBB2B8F1010F2F
:1051800013D0604531D0B04229D125E0604503D02D
:10519000B04201D0B84211D14868406848600D70F3
:1051A000BDE8F00F002000F0C1B860450DD0B0425E
:1051B00012D0B84202D1012A03D90C70BDE8F00F19
:1051C0007047FBD181F800A0F8E7032A01D20B70E9
:1051D000F4E7F3D10D70F1E781F80190EEE7B84202
:1051E000ECD1012AE9D8EDD0E8E7032AEFD3F1D0DA
:1051F000E4E7000016000020640000202DE9F00F15
:1052000028490A784FF480467700274901254FF452
:10521000005C9AB10A4691F8018012784FF00009BB
:10522000531EDCB2531C4FF0030ADBB2B8F1010F7E
:1052300013D0604531D0B04229D125E0604503D07C
:10524000B04201D0B84211D14868406848600D7042
:10525000BDE8F00F002000F069B860450DD0B04205
:1052600012D0B84202D1012A03D90C70BDE8F00F68
:105270007047FBD181F800A0F8E7032A01D20B7038
:10528000F4E7F3D10D70F1E781F80190EEE7B84251
:10529000ECD1012AE9D8EDD0E8E7032AEFD3F1D029
:1052A000E4E7000016000020640000202DE9F0472C
:1052B0001D4900270A4691F801C012780125531EA6
:1052C000DCB2531C03264FF480494FF4004ADBB292
:1052D0004FF40058BCF1010F04D040451FD04845A1
:1052E00017D114E040450BD0484510D0504502D1AD
:1052F000012A02D90C70BDE8F087FCD10E70FAE7E4
:10530000032A01D20B70F6E7F5D10D70F3E74F7069
:10531000F1E75045EFD1012AECD8EFD0EBE7032AB3
:10532000F0D3F2D0E7E70000640000202DE9F0415F
:10533000164C804600216088401E83B22088401EA3
:1053400082B2084600F00EF9114F002202213846C1
:10535000FDF7E5FC012220213846FDF7E0FC0026A0
:1053600009E0002503E0404600F04EFA6D1C20885D
:10537000A842F8D8761C6088B042F2D83846BDE81A
:10538000F04101220221FDF7CABC000008160020EE
:10539000000C004810B5144600F0E0F82046BDE8C7
:1053A000104000F031BA000010B500F0C1F836200E
:1053B00000F070FA002000F00BFA3A2000F06AFAD0
:1053C000052000F005FAB22000F064FA0C2000F08D
:1053D000FFF90C2000F0FCF9002000F0F9F933206F
:1053E00000F0F6F9332000F0F3F9B72000F052FA9C
:1053F000352000F0EDF9BB2000F04CFA192000F048
:10540000E7F9C02000F046FA2C2000F0E1F9C220B4
:1054100000F040FA012000F0DBF9C32000F03AFA76
:10542000122000F0D5F9C42000F034FA202000F05A
:10543000CFF9C62000F02EFA0F2000F0C9F9D020D5
:1054400000F028FAA42000F0C3F9A12000F0C0F970
:10545000E02000F01FFAD02000F0BAF9042000F09C
:10546000B7F90D2000F0B4F9112000F0B1F91320C4
:1054700000F0AEF92B2000F0ABF93F2000F0A8F9C6
:10548000542000F0A5F94C2000F0A2F9182000F0FB
:105490009FF90D2000F09CF90B2000F099F91F20D6
:1054A00000F096F9232000F093F9E12000F0F2F9E2
:1054B000D02000F08DF9042000F08AF90C2000F0D3
:1054C00087F9112000F084F9132000F081F92C20D5
:1054D00000F07EF93F2000F07BF9442000F078F9DD
:1054E000512000F075F92F2000F072F91F2000F014
:1054F0006FF91F2000F06CF9202000F069F92320DB
:1055000000F066F9112000F0C5F9292000F0C2F979
:10551000032000F0E5F9012208210448FDF7FFFB14
:10552000BDE810400020FFF701BF0000000C00485C
:1055300010B5094C002204212046FDF7F0FB142091
:10554000FDF7A4FA012204212046FDF7E8FBBDE89F
:1055500010401420FDF79ABA000C00480B46024692
:10556000AFF300802DE9F0411E4C074698461546E2
:105570000E46A07A00F08EF9A07B3844C0F30720D5
:1055800000F026F9A07B3844C0B200F021F9A07BDE
:105590002844C0F3072000F01BF9A07B2844C0B2C8
:1055A00000F016F9207B00F075F9E07B3044C0F381
:1055B000072000F00DF9E07B3044C0B200F008F99C
:1055C000E17B01EB0800C0F3072000F001F9E17B6B
:1055D00001EB0800C0B200F0FBF8BDE8F04100F0BC
:1055E00053B90000081600202DE9FF4F83B08A460A
:1055F00010A91E4691E89100203800F0FF096508C7
:1056000004FB05F04FF6FF7101EA400001900AEB40
:105610000400401E83B2039893462844401E82B281
:1056200051460398FFF79EFF0FB100268FE0002040
:105630000146494B47E000270C2C06D0102C0AD01D
:10564000182C0DD0202C11D016E0444A09EB490744
:1056500002EB870202E0424A02EB0912575C0BE0C0
:10566000404A09EB490702EB071202E03E4F07EB05
:10567000891202EB410217884FEA1B2CCDF800C0BB
:1056800000220BF0FF0C4FEA162E06F0FF0A16E080
:105690004FF0010808FA02F818EA070F07D0DDF802
:1056A000008003F80080401C03F800C004E003F809
:1056B00000E0401C03F800A0401C521CD2B2AA42D9
:1056C000E6D3491CC9B2A142B5D3019907B022481B
:1056D000BDE8F04F00F0BAB84FF000080C2C06D02F
:1056E000102C0AD0182C0DD0202C11D017E01B48FC
:1056F00009EB490100EB810002E0194800EB0910B9
:10570000805D0BE0174809EB490100EB011002E056
:10571000154800EB891000EB4600008880460AEB34
:105720000600002700900EE00120B84010EA080FA4
:1057300007D000985A4681B20398384480B2FFF7E8
:1057400029FE7F1CFFB2AF42EED3761CF6B2A64212
:10575000C2D307B0BDE8F08F080E00208EC9020842
:1057600002CE0208F2D30208C2E502082DE9FE4F7C
:105770001D00DDF830A090468946044622D04FEA4D
:105780005807114E1BE03188A1421BD972884A4547
:1057900018D9E3198B4206D909EB080100241FFA36
:1057A00081F94A450ED98DE80105084849464388E4
:1057B00002882046FFF718FFE01984B26D1C287894
:1057C0000028E0D1BDE8FE8F0816002080020020EE
:1057D00031B50B4C012220212046FDF7A0FA002212
:1057E00002212046FDF79BFA0A230122694605485B
:1057F000FEF7B6FC012202212046FDF790FA38BDE3
:10580000000C0048040C002038B5010A8DF8001087
:105810000C4C8DF80100002202212046FDF77FFA92
:10582000012220212046FDF77AFA0A230222694646
:105830000548FEF795FC012202212046FDF76FFA8C
:1058400038BD0000000C0048040C002070B50C4D61
:105850000C460646012220212846FDF760FA002268
:1058600002212846FDF75BFA0648FEF72CFB0328C9
:10587000FAD0A2B23146BDE870400248FEF738BD0A
:10588000000C0048040C00200148007A00F002B827
:105890000816002031B50B4C002220212046FDF7D0
:1058A0003EFA002202212046FDF739FA0A2301229E
:1058B00069460548FEF754FC012202212046FDF707
:1058C0002EFA38BD000C0048040C002010B50C4620
:1058D000FFF7E0FF2046BDE81040FFF779BF00006A
:1058E00030B417492A224FF4A0744A812B228A81AE
:1058F0002C220A810022F02370B1012812D0022844
:1059000016D003281AD10C804B808A73CA73A02149
:1059100030BC3620FFF7DABF0B804C808A73CA7325
:105920000021F5E70C804B808A73CA736021EFE792
:105930000B804C808A73CA73C021E9E730BC704782
:105940000816002000EB8100006E00F0F840704760
:105950008068C0F3C00070478068C0F38000704763
:105960008068C0F380007047C06810F4406F01D0B9
:105970000020704701207047042303EAD15310B57B
:1059800018444369C1F3045107248C40A3438A405F
:105990001343436110BD00EB8100016E21F0004113
:1059A000114301667047000070B58CB00024089464
:1059B0000994202168460A94FAF7CFFD34484FF045
:1059C000A041042501604FF44031C0E90114856114
:1059D0000121C460C0E904410477417705260662CD
:1059E00080F82440C462046380F838100903C1635E
:1059F00080F84040FCF7ECFA08B1FBF7B2FF08A9C9
:105A000023480894FBF7FAFF08B1FBF7AAFF2148E7
:105A100000900620CDE901067F200594CDE903051D
:105A200069461B48FCF79AF808B1FBF79AFF1A4839
:105A300000900C20019069461548FCF78FF808B1DA
:105A4000FBF78FFF1548009012200190694610481F
:105A5000FCF784F808B1FBF784FF11480090182088
:105A6000019069460A48FCF779F808B1FBF779FF1D
:105A70000C4800904FF48070019069460448FCF790
:105A80006DF8002801D0FBF76CFF0CB070BD000072
:105A90004008002002003004040060080800900C58
:105AA0001000C0100001802130B589B02021684667
:105AB000FAF753FD20481F49002401604FF440319C
:105AC000C0E90114042585610121C460C0E90441D5
:105AD000047741770222026280F82440C4620463A2
